{
    "contractName": "Hello",
    "abi": [
        {
            "inputs": [],
            "name": "sayHello",
            "outputs": [
                {
                    "internalType": "bytes32",
                    "name": "",
                    "type": "bytes32"
                }
            ],
            "stateMutability": "pure",
            "type": "function"
        }
    ],
    "bytecode": "60808060405234601357607c908160188239f35b5f80fdfe6004361015600b575f80fd5b5f3560e01c63ef5fb05b14601d575f80fd5b346042575f3660031901126042576b48656c6c6f20576f726c642160a01b5f5260205ff35b5f80fdfea26469706673582212203126db9e3b86f85125f67092f6f6fd2360386d6abb7c12fb58c95b64c806054b64736f6c634300081b0033",
    "sourcePath": "/Users/ezesunday/Development/30days-of-web3/voting/src/HelloWorld.assembly.sol",
    "compiler": {
        "name": "solc",
        "version": "0.8.27+commit.40a35a09"
    },
    "functionHashes": {
        "sayHello()": "ef5fb05b"
    },
    "gasEstimates": {
        "creation": {
            "codeDepositCost": "24800",
            "executionCost": "81",
            "totalCost": "24881"
        },
        "external": {
            "sayHello()": "122"
        }
    }
}