{
    "contractName": "MerkleTreeElection",
    "abi": [
        {
            "inputs": [],
            "stateMutability": "nonpayable",
            "type": "constructor"
        },
        {
            "inputs": [],
            "name": "AlreadyVoted",
            "type": "error"
        },
        {
            "inputs": [],
            "name": "InvalidProve",
            "type": "error"
        },
        {
            "inputs": [],
            "name": "Unauthorized",
            "type": "error"
        },
        {
            "anonymous": false,
            "inputs": [
                {
                    "indexed": true,
                    "internalType": "address",
                    "name": "voter",
                    "type": "address"
                },
                {
                    "indexed": true,
                    "internalType": "uint256",
                    "name": "candidateId",
                    "type": "uint256"
                }
            ],
            "name": "Voted",
            "type": "event"
        },
        {
            "inputs": [
                {
                    "internalType": "uint256",
                    "name": "",
                    "type": "uint256"
                }
            ],
            "name": "candidateVotes",
            "outputs": [
                {
                    "internalType": "uint256",
                    "name": "",
                    "type": "uint256"
                }
            ],
            "stateMutability": "view",
            "type": "function"
        },
        {
            "inputs": [
                {
                    "internalType": "address",
                    "name": "",
                    "type": "address"
                }
            ],
            "name": "hasVoted",
            "outputs": [
                {
                    "internalType": "bool",
                    "name": "",
                    "type": "bool"
                }
            ],
            "stateMutability": "view",
            "type": "function"
        },
        {
            "inputs": [],
            "name": "merkleRoot",
            "outputs": [
                {
                    "internalType": "bytes32",
                    "name": "",
                    "type": "bytes32"
                }
            ],
            "stateMutability": "view",
            "type": "function"
        },
        {
            "inputs": [
                {
                    "internalType": "bytes32",
                    "name": "_merkleRoot",
                    "type": "bytes32"
                }
            ],
            "name": "setMerkleRoot",
            "outputs": [],
            "stateMutability": "nonpayable",
            "type": "function"
        },
        {
            "inputs": [],
            "name": "totalVotes",
            "outputs": [
                {
                    "internalType": "uint256",
                    "name": "",
                    "type": "uint256"
                }
            ],
            "stateMutability": "view",
            "type": "function"
        },
        {
            "inputs": [
                {
                    "internalType": "bytes32[]",
                    "name": "proof",
                    "type": "bytes32[]"
                },
                {
                    "internalType": "bytes32",
                    "name": "leaf",
                    "type": "bytes32"
                }
            ],
            "name": "verifyMerkleProof",
            "outputs": [
                {
                    "internalType": "bool",
                    "name": "",
                    "type": "bool"
                }
            ],
            "stateMutability": "view",
            "type": "function"
        },
        {
            "inputs": [
                {
                    "internalType": "uint256",
                    "name": "candidateId",
                    "type": "uint256"
                },
                {
                    "internalType": "bytes32[]",
                    "name": "merkleProof",
                    "type": "bytes32[]"
                },
                {
                    "internalType": "bytes32",
                    "name": "leafHash",
                    "type": "bytes32"
                }
            ],
            "name": "vote",
            "outputs": [],
            "stateMutability": "nonpayable",
            "type": "function"
        }
    ],
    "bytecode": "608080604052346026575f80546001600160a01b031916331790556103e3908161002b8239f35b5f80fdfe6080806040526004361015610012575f80fd5b5f3560e01c90816309eef43e1461022e575080630d15fd77146102115780632eb4a7ab146101f4578063458936c2146101185780635f044052146100cf5780637cb64759146100975763f49e323e14610069575f80fd5b34610093576020366003190112610093576004355f526003602052602060405f2054604051908152f35b5f80fd5b34610093576020366003190112610093575f546001600160a01b031633146100c157600435600155005b6282b42960e81b5f5260045ffd5b346100935760403660031901126100935760043567ffffffffffffffff81116100935761010e61010560209236906004016102a2565b6024359061032c565b6040519015158152f35b346100935760603660031901126100935760043560243567ffffffffffffffff81116100935761014c9036906004016102a2565b335f52600260205260ff60405f2054166101e55761016d906044359061032c565b156101d657805f52600360205260405f20610188815461030a565b905561019560045461030a565b600455335f52600260205260405f20600160ff19825416179055337f4d99b957a2bc29a30ebd96a7be8e68fe50a3c701db28a91436490b7d53870ca45f80a3005b63d329e7bd60e01b5f5260045ffd5b637c9a1cf960e01b5f5260045ffd5b34610093575f366003190112610093576020600154604051908152f35b34610093575f366003190112610093576020600454604051908152f35b34610093576020366003190112610093576004356001600160a01b0381169190829003610093576020915f526002825260ff60405f20541615158152f35b90601f8019910116810190811067ffffffffffffffff82111761028e57604052565b634e487b7160e01b5f52604160045260245ffd5b9080601f830112156100935781359167ffffffffffffffff831161028e578260051b90604051936102d6602084018661026c565b845260208085019282010192831161009357602001905b8282106102fa5750505090565b81358152602091820191016102ed565b5f1981146103185760010190565b634e487b7160e01b5f52601160045260245ffd5b91905f905b83518210156103a457600582901b8401602001516001919080821161037b57604051906020820192835260408201526040815261036f60608261026c565b519020915b0190610331565b90604051906020820192835260408201526040815261039b60608261026c565b51902091610374565b6001541492505056fea2646970667358221220d46817ddecb841ea00d3863d8a4a0fb85e36fe1b6f80ff7d5d98fc2a9a83280664736f6c634300081b0033",
    "sourcePath": "/Users/ezesunday/Development/30days-of-web3/voting/src/voting.sol",
    "compiler": {
        "name": "solc",
        "version": "0.8.27+commit.40a35a09"
    },
    "functionHashes": {
        "candidateVotes(uint256)": "f49e323e",
        "hasVoted(address)": "09eef43e",
        "merkleRoot()": "2eb4a7ab",
        "setMerkleRoot(bytes32)": "7cb64759",
        "totalVotes()": "0d15fd77",
        "verifyMerkleProof(bytes32[],bytes32)": "5f044052",
        "vote(uint256,bytes32[],bytes32)": "458936c2"
    },
    "gasEstimates": {
        "creation": {
            "codeDepositCost": "199000",
            "executionCost": "24485",
            "totalCost": "223485"
        },
        "external": {
            "candidateVotes(uint256)": "2450",
            "hasVoted(address)": "2374",
            "merkleRoot()": "2300",
            "setMerkleRoot(bytes32)": "24487",
            "totalVotes()": "2278",
            "verifyMerkleProof(bytes32[],bytes32)": "infinite",
            "vote(uint256,bytes32[],bytes32)": "infinite"
        }
    }
}